{
  "transactions": [
    {
      "hash": "0x5e82e954fa588b680f08639930151872bfb48144b37e07e1aa4935adf03a1f6b",
      "transactionType": "CALL",
      "contractName": null,
      "contractAddress": "0x6e05e7e9a7530aa58a3ab70d7bfa2f8f93f5454c",
      "function": "setDefaultAlloc(address[],address[],uint32[])",
      "arguments": [
        "[0x833589fCD6eDb6E08f4c7C32D4f71b54bdA02913]",
        "[0x9e7456510A194043f5b9244BD9CdBfFb62C559D1]",
        "[10000]"
      ],
      "transaction": {
        "from": "0x868ba4d8700b152aff59a36e99bf151f50e4bdd4",
        "to": "0x6e05e7e9a7530aa58a3ab70d7bfa2f8f93f5454c",
        "gas": "0x2fcbc",
        "value": "0x0",
        "input": "0xed820070000000000000000000000000000000000000000000000000000000000000006000000000000000000000000000000000000000000000000000000000000000a000000000000000000000000000000000000000000000000000000000000000e00000000000000000000000000000000000000000000000000000000000000001000000000000000000000000833589fcd6edb6e08f4c7c32d4f71b54bda0291300000000000000000000000000000000000000000000000000000000000000010000000000000000000000009e7456510a194043f5b9244bd9cdbffb62c559d100000000000000000000000000000000000000000000000000000000000000010000000000000000000000000000000000000000000000000000000000002710",
        "nonce": "0x9",
        "chainId": "0x2105"
      },
      "additionalContracts": [],
      "isFixedGasLimit": false
    }
  ],
  "receipts": [
    {
      "status": "0x1",
      "cumulativeGasUsed": "0x19ea427",
      "logs": [
        {
          "address": "0x6e05e7e9a7530aa58a3ab70d7bfa2f8f93f5454c",
          "topics": [
            "0xe1bc286e2a03be48fc14c4e24e4fc16c1e1e4ca51d4f8eb1651d9d78c94a61bd",
            "0x000000000000000000000000833589fcd6edb6e08f4c7c32d4f71b54bda02913"
          ],
          "data": "0x",
          "blockHash": "0xc92bb5ca10f7fa6bdbe4e2027ac25866b4c92793ab1b4517007472d20ca0f687",
          "blockNumber": "0x2729851",
          "blockTimestamp": "0x696f8d85",
          "transactionHash": "0x5e82e954fa588b680f08639930151872bfb48144b37e07e1aa4935adf03a1f6b",
          "transactionIndex": "0x63",
          "logIndex": "0x260",
          "removed": false
        }
      ],
      "logsBloom": "0x00000000000000000000000000000000000000000000000000000000000000000000000000000000000000000000000000000000000000000000000000000000000000000000040000000000000000000000000000000000000000000000000000000000100000000000000000000000010000000000000000000000200000000000000000000000400000000000000000000000000000000000000400000000000000000000000000000000000000000000000000002000000000000000000000000000010000000000000000000000000000000000000000000000000000000000000004000000000000000000000000000000000000000000000000000000",
      "type": "0x2",
      "transactionHash": "0x5e82e954fa588b680f08639930151872bfb48144b37e07e1aa4935adf03a1f6b",
      "transactionIndex": "0x63",
      "blockHash": "0xc92bb5ca10f7fa6bdbe4e2027ac25866b4c92793ab1b4517007472d20ca0f687",
      "blockNumber": "0x2729851",
      "gasUsed": "0x229a8",
      "effectiveGasPrice": "0x5fa26e",
      "blobGasUsed": "0xaded",
      "from": "0x868ba4d8700b152aff59a36e99bf151f50e4bdd4",
      "to": "0x6e05e7e9a7530aa58a3ab70d7bfa2f8f93f5454c",
      "contractAddress": null,
      "daFootprintGasScalar": "0x145",
      "l1BaseFeeScalar": "0x8dd",
      "l1BlobBaseFee": "0x83cc3d",
      "l1BlobBaseFeeScalar": "0x101c12",
      "l1Fee": "0x74deee40",
      "l1GasPrice": "0x87b2e51",
      "l1GasUsed": "0x894"
    }
  ],
  "libraries": [],
  "pending": [],
  "returns": {},
  "timestamp": 1768918406186,
  "chain": 8453,
  "commit": "638cb26"
}