{
  "transactions": [
    {
      "hash": "0x05002f03867394891a2cbae8ed5d255c644cd55a0b4f7c82f73c04254925e938",
      "transactionType": "CALL",
      "contractName": null,
      "contractAddress": "0xa289ae6ed8336cab82626c3ff8e5af334eb7e0de",
      "function": "setDefaultAlloc(address[],address[],uint32[])",
      "arguments": [
        "[0x176211869cA2b568f2A7D4EE941E073a821EE1ff]",
        "[0x8f700F57A33C7FA8d00648CE2eF9005b69030b51]",
        "[10000]"
      ],
      "transaction": {
        "from": "0x868ba4d8700b152aff59a36e99bf151f50e4bdd4",
        "to": "0xa289ae6ed8336cab82626c3ff8e5af334eb7e0de",
        "gas": "0x2fcab",
        "value": "0x0",
        "input": "0xed820070000000000000000000000000000000000000000000000000000000000000006000000000000000000000000000000000000000000000000000000000000000a000000000000000000000000000000000000000000000000000000000000000e00000000000000000000000000000000000000000000000000000000000000001000000000000000000000000176211869ca2b568f2a7d4ee941e073a821ee1ff00000000000000000000000000000000000000000000000000000000000000010000000000000000000000008f700f57a33c7fa8d00648ce2ef9005b69030b5100000000000000000000000000000000000000000000000000000000000000010000000000000000000000000000000000000000000000000000000000002710",
        "nonce": "0x15",
        "chainId": "0xe708"
      },
      "additionalContracts": [],
      "isFixedGasLimit": false
    }
  ],
  "receipts": [
    {
      "status": "0x1",
      "cumulativeGasUsed": "0x2299c",
      "logs": [
        {
          "address": "0xa289ae6ed8336cab82626c3ff8e5af334eb7e0de",
          "topics": [
            "0xe1bc286e2a03be48fc14c4e24e4fc16c1e1e4ca51d4f8eb1651d9d78c94a61bd",
            "0x000000000000000000000000176211869ca2b568f2a7d4ee941e073a821ee1ff"
          ],
          "data": "0x",
          "blockHash": "0x774e836ec7343710cebf1faaaa109ed4715c981737d04659cfa320e8af4330a9",
          "blockNumber": "0x185b15c",
          "transactionHash": "0x05002f03867394891a2cbae8ed5d255c644cd55a0b4f7c82f73c04254925e938",
          "transactionIndex": "0x0",
          "logIndex": "0x0",
          "removed": false
        }
      ],
      "logsBloom": "0x00000000000000000000000000000000000000000000000000000000000000000000000000000000000000000000000000000000000000000000000000000000000000000000000000080000000000000000000000000000000000000011000000000000000000000000000000000000800000000000000000000000200000002000000000000000000000000000000000000000000000000000000400000000000000000000000000000000000000000000000000000000000000000000000000000000000000000000000000000000000200000000000000000000000000000000000004000000000000000000000000000000000000000000000000000000",
      "type": "0x2",
      "transactionHash": "0x05002f03867394891a2cbae8ed5d255c644cd55a0b4f7c82f73c04254925e938",
      "transactionIndex": "0x0",
      "blockHash": "0x774e836ec7343710cebf1faaaa109ed4715c981737d04659cfa320e8af4330a9",
      "blockNumber": "0x185b15c",
      "gasUsed": "0x2299c",
      "effectiveGasPrice": "0x3350f68",
      "from": "0x868ba4d8700b152aff59a36e99bf151f50e4bdd4",
      "to": "0xa289ae6ed8336cab82626c3ff8e5af334eb7e0de",
      "contractAddress": null
    }
  ],
  "libraries": [],
  "pending": [],
  "returns": {},
  "timestamp": 1762873671,
  "chain": 59144,
  "commit": "3dd74f2"
}