{
  "transactions": [
    {
      "hash": "0x4fd9ae8112639711370883346daf4eab85be26ee1a17299cc61c9c85a7e1e864",
      "transactionType": "CALL",
      "contractName": null,
      "contractAddress": "0xea303acd2c6bcef98e9db0475cd1db9a713a0fec",
      "function": "setDefaultAlloc(address[],address[],uint32[])",
      "arguments": [
        "[0x176211869cA2b568f2A7D4EE941E073a821EE1ff]",
        "[0x8DFB7364768cf65E8b430D990E586bf679188f31]",
        "[10000]"
      ],
      "transaction": {
        "from": "0x868ba4d8700b152aff59a36e99bf151f50e4bdd4",
        "to": "0xea303acd2c6bcef98e9db0475cd1db9a713a0fec",
        "gas": "0x32998",
        "value": "0x0",
        "input": "0xed820070000000000000000000000000000000000000000000000000000000000000006000000000000000000000000000000000000000000000000000000000000000a000000000000000000000000000000000000000000000000000000000000000e00000000000000000000000000000000000000000000000000000000000000001000000000000000000000000176211869ca2b568f2a7d4ee941e073a821ee1ff00000000000000000000000000000000000000000000000000000000000000010000000000000000000000008dfb7364768cf65e8b430d990e586bf679188f3100000000000000000000000000000000000000000000000000000000000000010000000000000000000000000000000000000000000000000000000000002710",
        "nonce": "0xd",
        "chainId": "0xe708"
      },
      "additionalContracts": [],
      "isFixedGasLimit": false
    }
  ],
  "receipts": [
    {
      "status": "0x1",
      "cumulativeGasUsed": "0x2fc6d",
      "logs": [
        {
          "address": "0xea303acd2c6bcef98e9db0475cd1db9a713a0fec",
          "topics": [
            "0xe1bc286e2a03be48fc14c4e24e4fc16c1e1e4ca51d4f8eb1651d9d78c94a61bd",
            "0x000000000000000000000000176211869ca2b568f2a7d4ee941e073a821ee1ff"
          ],
          "data": "0x",
          "blockHash": "0xd44ddadec22a0581c5c6951be56f301238b6f7be00b83f43c4d4ccb81f5cd506",
          "blockNumber": "0x17af357",
          "blockTimestamp": "0x68fa4679",
          "transactionHash": "0x4fd9ae8112639711370883346daf4eab85be26ee1a17299cc61c9c85a7e1e864",
          "transactionIndex": "0x1",
          "logIndex": "0x0",
          "removed": false
        }
      ],
      "logsBloom": "0x00000000000000000000000000000000000000000000000000000000000000000000000000000000000000000000000000000000000000000000000000000000100000000000000000080000000000000000000000000000000000000000000000000000000040000000000000000000800000000000000000000000200000000000000000020000000000000000000000000000000000000000000400000000000000000000000000000000000000000000000000000000000000000000000000000000000000000000000000000000000200000000000000000000000000000000000004000000000000000000000000000000000000000000000000000000",
      "type": "0x2",
      "transactionHash": "0x4fd9ae8112639711370883346daf4eab85be26ee1a17299cc61c9c85a7e1e864",
      "transactionIndex": "0x1",
      "blockHash": "0xd44ddadec22a0581c5c6951be56f301238b6f7be00b83f43c4d4ccb81f5cd506",
      "blockNumber": "0x17af357",
      "gasUsed": "0x22992",
      "effectiveGasPrice": "0x3699fc6",
      "from": "0x868ba4d8700b152aff59a36e99bf151f50e4bdd4",
      "to": "0xea303acd2c6bcef98e9db0475cd1db9a713a0fec",
      "contractAddress": null
    }
  ],
  "libraries": [],
  "pending": [],
  "returns": {},
  "timestamp": 1761232505,
  "chain": 59144,
  "commit": "8a61f4d"
}