{
  "transactions": [
    {
      "hash": "0x168e7cd7c0ccd2b9acd0358b2fc2430d1e1be1ba36b2f2bdafee1d3e443e913c",
      "transactionType": "CALL",
      "contractName": null,
      "contractAddress": "0x69c6a0f3cf595267ef1b7357922c382ea0464d6d",
      "function": "transferOwnership(address)",
      "arguments": [
        "0x25c4816b54a429b71F08b17c3302A8086234f509"
      ],
      "transaction": {
        "from": "0x868ba4d8700b152aff59a36e99bf151f50e4bdd4",
        "to": "0x69c6a0f3cf595267ef1b7357922c382ea0464d6d",
        "gas": "0x9cb9",
        "value": "0x0",
        "input": "0xf2fde38b00000000000000000000000025c4816b54a429b71f08b17c3302a8086234f509",
        "nonce": "0x34",
        "chainId": "0xaa36a7"
      },
      "additionalContracts": [],
      "isFixedGasLimit": false
    }
  ],
  "receipts": [
    {
      "status": "0x1",
      "cumulativeGasUsed": "0xa34394",
      "logs": [
        {
          "address": "0x69c6a0f3cf595267ef1b7357922c382ea0464d6d",
          "topics": [
            "0x8be0079c531659141344cd1fd0a4f28419497f9722a3daafe3b4186f6b6457e0",
            "0x000000000000000000000000868ba4d8700b152aff59a36e99bf151f50e4bdd4",
            "0x00000000000000000000000025c4816b54a429b71f08b17c3302a8086234f509"
          ],
          "data": "0x",
          "blockHash": "0x85871efe35c52ee2732e1dfecf6287bfb1d257eaf38f8c92e1735b14d93f932a",
          "blockNumber": "0x970805",
          "blockTimestamp": "0x694a50e0",
          "transactionHash": "0x168e7cd7c0ccd2b9acd0358b2fc2430d1e1be1ba36b2f2bdafee1d3e443e913c",
          "transactionIndex": "0x45",
          "logIndex": "0x17e",
          "removed": false
        }
      ],
      "logsBloom": "0x00000000000000000000000000000000000000000000000000800000000000000000000000000000000000000000000000000000000000000000000000000000000000000000000000000000000000000001000080000000000000000000000000000000010000000000000001000004000000000000000000000000000100400000000000000000000000000000000000000000000000000000000000000000000000000000000000000000000000000000000000000000000000000000000004000000000000000000000000000000000000000000000002000000000000008000000000800000000000000000000000000000000000000000000000000000",
      "type": "0x2",
      "transactionHash": "0x168e7cd7c0ccd2b9acd0358b2fc2430d1e1be1ba36b2f2bdafee1d3e443e913c",
      "transactionIndex": "0x45",
      "blockHash": "0x85871efe35c52ee2732e1dfecf6287bfb1d257eaf38f8c92e1735b14d93f932a",
      "blockNumber": "0x970805",
      "gasUsed": "0x7178",
      "effectiveGasPrice": "0x11751a",
      "from": "0x868ba4d8700b152aff59a36e99bf151f50e4bdd4",
      "to": "0x69c6a0f3cf595267ef1b7357922c382ea0464d6d",
      "contractAddress": null
    }
  ],
  "libraries": [],
  "pending": [],
  "returns": {},
  "timestamp": 1766478049,
  "chain": 11155111,
  "commit": "638cb26"
}