{
  "transactions": [
    {
      "hash": "0xc802cad6229c017792cb082c58e0f3627bd3ffa3ae5cdf99e4033c007efeccfc",
      "transactionType": "CALL",
      "contractName": null,
      "contractAddress": "0xea303acd2c6bcef98e9db0475cd1db9a713a0fec",
      "function": "deposit(address,uint256)",
      "arguments": [
        "0x176211869cA2b568f2A7D4EE941E073a821EE1ff",
        "1000"
      ],
      "transaction": {
        "from": "0x868ba4d8700b152aff59a36e99bf151f50e4bdd4",
        "to": "0xea303acd2c6bcef98e9db0475cd1db9a713a0fec",
        "gas": "0x75cb2",
        "value": "0x0",
        "input": "0x47e7ef24000000000000000000000000176211869ca2b568f2a7d4ee941e073a821ee1ff00000000000000000000000000000000000000000000000000000000000003e8",
        "nonce": "0xf",
        "chainId": "0xe708"
      },
      "additionalContracts": [],
      "isFixedGasLimit": false
    }
  ],
  "receipts": [
    {
      "status": "0x1",
      "cumulativeGasUsed": "0x10d01a",
      "logs": [
        {
          "address": "0x176211869ca2b568f2a7d4ee941e073a821ee1ff",
          "topics": [
            "0xddf252ad1be2c89b69c2b068fc378daa952ba7f163c4a11628f55a4df523b3ef",
            "0x000000000000000000000000868ba4d8700b152aff59a36e99bf151f50e4bdd4",
            "0x000000000000000000000000ea303acd2c6bcef98e9db0475cd1db9a713a0fec"
          ],
          "data": "0x00000000000000000000000000000000000000000000000000000000000003e8",
          "blockHash": "0x32e0f1397ab80ac08d9fdfe3b1a00fe5054677af9dd4077a2c3f87177eadd8e5",
          "blockNumber": "0x17af485",
          "blockTimestamp": "0x68fa4963",
          "transactionHash": "0xc802cad6229c017792cb082c58e0f3627bd3ffa3ae5cdf99e4033c007efeccfc",
          "transactionIndex": "0x5",
          "logIndex": "0x9",
          "removed": false
        },
        {
          "address": "0x176211869ca2b568f2a7d4ee941e073a821ee1ff",
          "topics": [
            "0xddf252ad1be2c89b69c2b068fc378daa952ba7f163c4a11628f55a4df523b3ef",
            "0x000000000000000000000000ea303acd2c6bcef98e9db0475cd1db9a713a0fec",
            "0x0000000000000000000000008dfb7364768cf65e8b430d990e586bf679188f31"
          ],
          "data": "0x00000000000000000000000000000000000000000000000000000000000003e8",
          "blockHash": "0x32e0f1397ab80ac08d9fdfe3b1a00fe5054677af9dd4077a2c3f87177eadd8e5",
          "blockNumber": "0x17af485",
          "blockTimestamp": "0x68fa4963",
          "transactionHash": "0xc802cad6229c017792cb082c58e0f3627bd3ffa3ae5cdf99e4033c007efeccfc",
          "transactionIndex": "0x5",
          "logIndex": "0xa",
          "removed": false
        },
        {
          "address": "0x176211869ca2b568f2a7d4ee941e073a821ee1ff",
          "topics": [
            "0x8c5be1e5ebec7d5bd14f71427d1e84f3dd0314c0f7b2291e5b200ac8c7c3b925",
            "0x0000000000000000000000008dfb7364768cf65e8b430d990e586bf679188f31",
            "0x000000000000000000000000c47b8c00b0f69a36fa203ffeac0334874574a8ac"
          ],
          "data": "0x00000000000000000000000000000000000000000000000000000000000003e8",
          "blockHash": "0x32e0f1397ab80ac08d9fdfe3b1a00fe5054677af9dd4077a2c3f87177eadd8e5",
          "blockNumber": "0x17af485",
          "blockTimestamp": "0x68fa4963",
          "transactionHash": "0xc802cad6229c017792cb082c58e0f3627bd3ffa3ae5cdf99e4033c007efeccfc",
          "transactionIndex": "0x5",
          "logIndex": "0xb",
          "removed": false
        },
        {
          "address": "0xc47b8c00b0f69a36fa203ffeac0334874574a8ac",
          "topics": [
            "0x804c9b842b2748a22bb64b345453a3de7ca54a6ca45ce00d415894979e22897a",
            "0x000000000000000000000000176211869ca2b568f2a7d4ee941e073a821ee1ff"
          ],
          "data": "0x0000000000000000000000000000000000000000001adf6754a6f9e867dcf17e00000000000000000000000000000000000000000000000000000000000000000000000000000000000000000000000000000000002a3c177a42e80685174b100000000000000000000000000000000000000000034b58fed51cd9c3a8d1b5d600000000000000000000000000000000000000000354d9c48bde88a3092ac798",
          "blockHash": "0x32e0f1397ab80ac08d9fdfe3b1a00fe5054677af9dd4077a2c3f87177eadd8e5",
          "blockNumber": "0x17af485",
          "blockTimestamp": "0x68fa4963",
          "transactionHash": "0xc802cad6229c017792cb082c58e0f3627bd3ffa3ae5cdf99e4033c007efeccfc",
          "transactionIndex": "0x5",
          "logIndex": "0xc",
          "removed": false
        },
        {
          "address": "0x176211869ca2b568f2a7d4ee941e073a821ee1ff",
          "topics": [
            "0xddf252ad1be2c89b69c2b068fc378daa952ba7f163c4a11628f55a4df523b3ef",
            "0x0000000000000000000000008dfb7364768cf65e8b430d990e586bf679188f31",
            "0x000000000000000000000000374d7860c4f2f604de0191298dd393703cce84f3"
          ],
          "data": "0x00000000000000000000000000000000000000000000000000000000000003e8",
          "blockHash": "0x32e0f1397ab80ac08d9fdfe3b1a00fe5054677af9dd4077a2c3f87177eadd8e5",
          "blockNumber": "0x17af485",
          "blockTimestamp": "0x68fa4963",
          "transactionHash": "0xc802cad6229c017792cb082c58e0f3627bd3ffa3ae5cdf99e4033c007efeccfc",
          "transactionIndex": "0x5",
          "logIndex": "0xd",
          "removed": false
        },
        {
          "address": "0x374d7860c4f2f604de0191298dd393703cce84f3",
          "topics": [
            "0xddf252ad1be2c89b69c2b068fc378daa952ba7f163c4a11628f55a4df523b3ef",
            "0x0000000000000000000000000000000000000000000000000000000000000000",
            "0x0000000000000000000000008dfb7364768cf65e8b430d990e586bf679188f31"
          ],
          "data": "0x00000000000000000000000000000000000000000000000000000000000003e7",
          "blockHash": "0x32e0f1397ab80ac08d9fdfe3b1a00fe5054677af9dd4077a2c3f87177eadd8e5",
          "blockNumber": "0x17af485",
          "blockTimestamp": "0x68fa4963",
          "transactionHash": "0xc802cad6229c017792cb082c58e0f3627bd3ffa3ae5cdf99e4033c007efeccfc",
          "transactionIndex": "0x5",
          "logIndex": "0xe",
          "removed": false
        },
        {
          "address": "0x374d7860c4f2f604de0191298dd393703cce84f3",
          "topics": [
            "0x458f5fa412d0f69b08dd84872b0215675cc67bc1d5b6fd93300a1c3878b86196",
            "0x0000000000000000000000008dfb7364768cf65e8b430d990e586bf679188f31",
            "0x0000000000000000000000008dfb7364768cf65e8b430d990e586bf679188f31"
          ],
          "data": "0x00000000000000000000000000000000000000000000000000000000000003e700000000000000000000000000000000000000000000000000000000000000000000000000000000000000000000000000000000034b58fed51cd9c3a8d1b5d6",
          "blockHash": "0x32e0f1397ab80ac08d9fdfe3b1a00fe5054677af9dd4077a2c3f87177eadd8e5",
          "blockNumber": "0x17af485",
          "blockTimestamp": "0x68fa4963",
          "transactionHash": "0xc802cad6229c017792cb082c58e0f3627bd3ffa3ae5cdf99e4033c007efeccfc",
          "transactionIndex": "0x5",
          "logIndex": "0xf",
          "removed": false
        },
        {
          "address": "0xc47b8c00b0f69a36fa203ffeac0334874574a8ac",
          "topics": [
            "0x00058a56ea94653cdf4f152d227ace22d4c00ad99e2a43f58cb7d9e3feb295f2",
            "0x000000000000000000000000176211869ca2b568f2a7d4ee941e073a821ee1ff",
            "0x0000000000000000000000008dfb7364768cf65e8b430d990e586bf679188f31"
          ],
          "data": "0x",
          "blockHash": "0x32e0f1397ab80ac08d9fdfe3b1a00fe5054677af9dd4077a2c3f87177eadd8e5",
          "blockNumber": "0x17af485",
          "blockTimestamp": "0x68fa4963",
          "transactionHash": "0xc802cad6229c017792cb082c58e0f3627bd3ffa3ae5cdf99e4033c007efeccfc",
          "transactionIndex": "0x5",
          "logIndex": "0x10",
          "removed": false
        },
        {
          "address": "0xc47b8c00b0f69a36fa203ffeac0334874574a8ac",
          "topics": [
            "0x2b627736bca15cd5381dcf80b0bf11fd197d01a037c52b927a881a10fb73ba61",
            "0x000000000000000000000000176211869ca2b568f2a7d4ee941e073a821ee1ff",
            "0x0000000000000000000000008dfb7364768cf65e8b430d990e586bf679188f31",
            "0x0000000000000000000000000000000000000000000000000000000000000000"
          ],
          "data": "0x0000000000000000000000008dfb7364768cf65e8b430d990e586bf679188f3100000000000000000000000000000000000000000000000000000000000003e8",
          "blockHash": "0x32e0f1397ab80ac08d9fdfe3b1a00fe5054677af9dd4077a2c3f87177eadd8e5",
          "blockNumber": "0x17af485",
          "blockTimestamp": "0x68fa4963",
          "transactionHash": "0xc802cad6229c017792cb082c58e0f3627bd3ffa3ae5cdf99e4033c007efeccfc",
          "transactionIndex": "0x5",
          "logIndex": "0x11",
          "removed": false
        },
        {
          "address": "0x8dfb7364768cf65e8b430d990e586bf679188f31",
          "topics": [
            "0x2a89b2e3d580398d6dc2db5e0f336b52602bbaa51afa9bb5cdf59239cf0d2bea"
          ],
          "data": "0x00000000000000000000000000000000000000000000000000000000000003e8",
          "blockHash": "0x32e0f1397ab80ac08d9fdfe3b1a00fe5054677af9dd4077a2c3f87177eadd8e5",
          "blockNumber": "0x17af485",
          "blockTimestamp": "0x68fa4963",
          "transactionHash": "0xc802cad6229c017792cb082c58e0f3627bd3ffa3ae5cdf99e4033c007efeccfc",
          "transactionIndex": "0x5",
          "logIndex": "0x12",
          "removed": false
        },
        {
          "address": "0x1c42d280ff86951ab3e009ee1aa007e2a69c4f1b",
          "topics": [
            "0xddf252ad1be2c89b69c2b068fc378daa952ba7f163c4a11628f55a4df523b3ef",
            "0x0000000000000000000000000000000000000000000000000000000000000000",
            "0x000000000000000000000000868ba4d8700b152aff59a36e99bf151f50e4bdd4"
          ],
          "data": "0x00000000000000000000000000000000000000000000000000000000000003e8",
          "blockHash": "0x32e0f1397ab80ac08d9fdfe3b1a00fe5054677af9dd4077a2c3f87177eadd8e5",
          "blockNumber": "0x17af485",
          "blockTimestamp": "0x68fa4963",
          "transactionHash": "0xc802cad6229c017792cb082c58e0f3627bd3ffa3ae5cdf99e4033c007efeccfc",
          "transactionIndex": "0x5",
          "logIndex": "0x13",
          "removed": false
        },
        {
          "address": "0xea303acd2c6bcef98e9db0475cd1db9a713a0fec",
          "topics": [
            "0xa5eed9cab8c7a9b6492ccdbf67579366384a697ae060f17622c1fc7300e76335",
            "0x000000000000000000000000868ba4d8700b152aff59a36e99bf151f50e4bdd4",
            "0x000000000000000000000000176211869ca2b568f2a7d4ee941e073a821ee1ff"
          ],
          "data": "0x00000000000000000000000000000000000000000000000000000000000000400000000000000000000000000000000000000000000000000000000000000080000000000000000000000000000000000000000000000000000000000000000100000000000000000000000000000000000000000000000000000000000003e800000000000000000000000000000000000000000000000000000000000000010000000000000000000000008dfb7364768cf65e8b430d990e586bf679188f31",
          "blockHash": "0x32e0f1397ab80ac08d9fdfe3b1a00fe5054677af9dd4077a2c3f87177eadd8e5",
          "blockNumber": "0x17af485",
          "blockTimestamp": "0x68fa4963",
          "transactionHash": "0xc802cad6229c017792cb082c58e0f3627bd3ffa3ae5cdf99e4033c007efeccfc",
          "transactionIndex": "0x5",
          "logIndex": "0x14",
          "removed": false
        }
      ],
      "logsBloom": "0x00000000040008000080000000100000000000000000000000000000204000000000200200000000000080000004000000000800000001000004000000200000100400000000000000080008020000000000000080000000000000040200030000000001020060000000000000000800800000000000000000000010000000000000000080220000000000000000000008000400020080000002000000040000020000000000000000000000000020000000000800000000000000000000010002010002000000000000002040000000000200000040000002000000000020028010000000000000000000002000000040000008000000000000440000000000",
      "type": "0x2",
      "transactionHash": "0xc802cad6229c017792cb082c58e0f3627bd3ffa3ae5cdf99e4033c007efeccfc",
      "transactionIndex": "0x5",
      "blockHash": "0x32e0f1397ab80ac08d9fdfe3b1a00fe5054677af9dd4077a2c3f87177eadd8e5",
      "blockNumber": "0x17af485",
      "gasUsed": "0x5547d",
      "effectiveGasPrice": "0x28e9774",
      "from": "0x868ba4d8700b152aff59a36e99bf151f50e4bdd4",
      "to": "0xea303acd2c6bcef98e9db0475cd1db9a713a0fec",
      "contractAddress": null
    }
  ],
  "libraries": [],
  "pending": [],
  "returns": {},
  "timestamp": 1761233252,
  "chain": 59144,
  "commit": "8a61f4d"
}