{
  "transactions": [
    {
      "hash": "0x643eb3db41547604afc8adeb37c783e363f08c03e38920ccd4008c9b91a13d38",
      "transactionType": "CREATE",
      "contractName": "AAVEAdapter",
      "contractAddress": "0x8f700f57a33c7fa8d00648ce2ef9005b69030b51",
      "function": null,
      "arguments": [
        "0xa289AE6ed8336CaB82626c3ff8e5Af334Eb7E0DE",
        "[0x176211869cA2b568f2A7D4EE941E073a821EE1ff]",
        "[0xc47b8C00b0f69a36fa203Ffeac0334874574a8Ac]",
        "[0x374D7860c4f2f604De0191298dD393703Cce84f3]"
      ],
      "transaction": {
        "from": "0x868ba4d8700b152aff59a36e99bf151f50e4bdd4",
        "gas": "0x8f3ee",
        "value": "0x0",
        "input": "0x608060405234801561001057600080fd5b5060405161091d38038061091d83398101604081905261002f91610349565b600080546001600160a01b0319166001600160a01b0386161790558151835114801561005c575080518351145b6100a15760405162461bcd60e51b81526020600482015260126024820152714d69736d617463686564206c656e6774687360701b604482015260640160405180910390fd5b60005b8351811015610267578281815181106100bf576100bf6103f0565b6020026020010151600160008684815181106100dd576100dd6103f0565b60200260200101516001600160a01b03166001600160a01b0316815260200190815260200160002060006101000a8154816001600160a01b0302191690836001600160a01b0316021790555081818151811061013b5761013b6103f0565b602002602001015160026000868481518110610159576101596103f0565b60200260200101516001600160a01b03166001600160a01b0316815260200190815260200160002060006101000a8154816001600160a01b0302191690836001600160a01b031602179055508381815181106101b7576101b76103f0565b60200260200101516001600160a01b031663095ea7b38483815181106101df576101df6103f0565b60200260200101516000196040518363ffffffff1660e01b815260040161021b9291906001600160a01b03929092168252602082015260400190565b6020604051808303816000875af115801561023a573d6000803e3d6000fd5b505050506040513d601f19601f8201168201806040525081019061025e9190610406565b506001016100a4565b505050505061042f565b80516001600160a01b038116811461028857600080fd5b919050565b634e487b7160e01b600052604160045260246000fd5b600082601f8301126102b457600080fd5b81516001600160401b038111156102cd576102cd61028d565b604051600582901b90603f8201601f191681016001600160401b03811182821017156102fb576102fb61028d565b60405291825260208185018101929081018684111561031957600080fd5b6020860192505b8383101561033f5761033183610271565b815260209283019201610320565b5095945050505050565b6000806000806080858703121561035f57600080fd5b61036885610271565b60208601519094506001600160401b0381111561038457600080fd5b610390878288016102a3565b604087015190945090506001600160401b038111156103ae57600080fd5b6103ba878288016102a3565b606087015190935090506001600160401b038111156103d857600080fd5b6103e4878288016102a3565b91505092959194509250565b634e487b7160e01b600052603260045260246000fd5b60006020828403121561041857600080fd5b8151801515811461042857600080fd5b9392505050565b6104df8061043e6000396000f3fe608060405234801561001057600080fd5b50600436106100935760003560e01c8063a03d55e311610066578063a03d55e31461010b578063c6cf7c5f14610112578063d750afe81461013b578063d839f3d214610164578063f887ea401461017757600080fd5b8063325964d71461009857806347e7ef24146100c857806365b89f9f146100dd5780639e15c572146100fe575b600080fd5b6000546100ab906001600160a01b031681565b6040516001600160a01b0390911681526020015b60405180910390f35b6100db6100d6366004610474565b610188565b005b6100f06100eb366004610474565b6102a7565b6040519081526020016100bf565b634141564560e01b6100f0565b60006100f0565b6100ab61012036600461049e565b6002602052600090815260409020546001600160a01b031681565b6100ab61014936600461049e565b6001602052600090815260409020546001600160a01b031681565b6100f061017236600461049e565b6103d4565b6000546001600160a01b03166100ab565b6000546001600160a01b031633146101e75760405162461bcd60e51b815260206004820152601a60248201527f4f6e6c79204c6f636b6572526f757465722063616e2063616c6c00000000000060448201526064015b60405180910390fd5b6001600160a01b0382811660008181526001602052604080822054905163617ba03760e01b815260048101939093526024830185905230604484015260648301919091529091169063617ba03790608401600060405180830381600087803b15801561025257600080fd5b505af1158015610266573d6000803e3d6000fd5b505050507f2a89b2e3d580398d6dc2db5e0f336b52602bbaa51afa9bb5cdf59239cf0d2bea8160405161029b91815260200190565b60405180910390a15050565b600080546001600160a01b031633146103025760405162461bcd60e51b815260206004820152601a60248201527f4f6e6c79204c6f636b6572526f757465722063616e2063616c6c00000000000060448201526064016101de565b6001600160a01b038381166000818152600160205260408082205482549151631a4ca37b60e21b81526004810194909452602484018790529084166044840152909216906369328dec906064016020604051808303816000875af115801561036e573d6000803e3d6000fd5b505050506040513d601f19601f8201168201806040525081019061039291906104b9565b90507fbde58bce285989d75e0815fe9c21d1c680ea85bd0b72c01eb962f636fc1d5004816040516103c591815260200190565b60405180910390a19392505050565b6001600160a01b038181166000908152600260205260408082205490516370a0823160e01b81523060048201529192169081906370a0823190602401602060405180830381865afa15801561042d573d6000803e3d6000fd5b505050506040513d601f19601f8201168201806040525081019061045191906104b9565b9392505050565b80356001600160a01b038116811461046f57600080fd5b919050565b6000806040838503121561048757600080fd5b61049083610458565b946020939093013593505050565b6000602082840312156104b057600080fd5b61045182610458565b6000602082840312156104cb57600080fd5b505191905056fea164736f6c634300081c000a000000000000000000000000a289ae6ed8336cab82626c3ff8e5af334eb7e0de000000000000000000000000000000000000000000000000000000000000008000000000000000000000000000000000000000000000000000000000000000c000000000000000000000000000000000000000000000000000000000000001000000000000000000000000000000000000000000000000000000000000000001000000000000000000000000176211869ca2b568f2a7d4ee941e073a821ee1ff0000000000000000000000000000000000000000000000000000000000000001000000000000000000000000c47b8c00b0f69a36fa203ffeac0334874574a8ac0000000000000000000000000000000000000000000000000000000000000001000000000000000000000000374d7860c4f2f604de0191298dd393703cce84f3",
        "nonce": "0x11",
        "chainId": "0xe708"
      },
      "additionalContracts": [],
      "isFixedGasLimit": false
    },
    {
      "hash": "0x2a514b12457fffad38ab99945264355c850ec8e3bf4e53b8a68f157e863acdec",
      "transactionType": "CALL",
      "contractName": null,
      "contractAddress": "0xa289ae6ed8336cab82626c3ff8e5af334eb7e0de",
      "function": "setAssetAdapter(address,address,bool)",
      "arguments": [
        "0x176211869cA2b568f2A7D4EE941E073a821EE1ff",
        "0x8f700F57A33C7FA8d00648CE2eF9005b69030b51",
        "true"
      ],
      "transaction": {
        "from": "0x868ba4d8700b152aff59a36e99bf151f50e4bdd4",
        "to": "0xa289ae6ed8336cab82626c3ff8e5af334eb7e0de",
        "gas": "0x19622",
        "value": "0x0",
        "input": "0x3b97a2c8000000000000000000000000176211869ca2b568f2a7d4ee941e073a821ee1ff0000000000000000000000008f700f57a33c7fa8d00648ce2ef9005b69030b510000000000000000000000000000000000000000000000000000000000000001",
        "nonce": "0x12",
        "chainId": "0xe708"
      },
      "additionalContracts": [],
      "isFixedGasLimit": false
    }
  ],
  "receipts": [
    {
      "status": "0x1",
      "cumulativeGasUsed": "0xb1d61",
      "logs": [
        {
          "address": "0x176211869ca2b568f2a7d4ee941e073a821ee1ff",
          "topics": [
            "0x8c5be1e5ebec7d5bd14f71427d1e84f3dd0314c0f7b2291e5b200ac8c7c3b925",
            "0x0000000000000000000000008f700f57a33c7fa8d00648ce2ef9005b69030b51",
            "0x000000000000000000000000c47b8c00b0f69a36fa203ffeac0334874574a8ac"
          ],
          "data": "0xffffffffffffffffffffffffffffffffffffffffffffffffffffffffffffffff",
          "blockHash": "0x2d99a40936cc0d5d82cba0f1cf8719ed2711242f4925fef7c88fc3fe2bc205d5",
          "blockNumber": "0x185b10d",
          "transactionHash": "0x643eb3db41547604afc8adeb37c783e363f08c03e38920ccd4008c9b91a13d38",
          "transactionIndex": "0x2",
          "logIndex": "0x6",
          "removed": false
        }
      ],
      "logsBloom": "0x00000000000000000000000000000000000010000000000000000000000000000000000000000000000000000000000000000800000003000004000000200000000000000000000000000000020000000000000000000000000000000000000000000001000000000000000000000000000000000000000000000000000000000000000000000000000000000000000000000000000000000000000000000100020000000000000000000000000000000000000000000000000000000000000000000000000000000000000000000000000000000000000000000000000000000010000000000000000000000000000000000000000000000000040000000000",
      "type": "0x2",
      "transactionHash": "0x643eb3db41547604afc8adeb37c783e363f08c03e38920ccd4008c9b91a13d38",
      "transactionIndex": "0x2",
      "blockHash": "0x2d99a40936cc0d5d82cba0f1cf8719ed2711242f4925fef7c88fc3fe2bc205d5",
      "blockNumber": "0x185b10d",
      "gasUsed": "0x6e3ac",
      "effectiveGasPrice": "0x3350f68",
      "from": "0x868ba4d8700b152aff59a36e99bf151f50e4bdd4",
      "to": null,
      "contractAddress": "0x8f700f57a33c7fa8d00648ce2ef9005b69030b51"
    },
    {
      "status": "0x1",
      "cumulativeGasUsed": "0xc3314",
      "logs": [
        {
          "address": "0xa289ae6ed8336cab82626c3ff8e5af334eb7e0de",
          "topics": [
            "0x5bb699ee4004238a2271a7de962e683e5f97f792c85c5306ea4610a636e83bde",
            "0x000000000000000000000000176211869ca2b568f2a7d4ee941e073a821ee1ff",
            "0x0000000000000000000000008f700f57a33c7fa8d00648ce2ef9005b69030b51"
          ],
          "data": "0x0000000000000000000000000000000000000000000000000000000000000001",
          "blockHash": "0x2d99a40936cc0d5d82cba0f1cf8719ed2711242f4925fef7c88fc3fe2bc205d5",
          "blockNumber": "0x185b10d",
          "transactionHash": "0x2a514b12457fffad38ab99945264355c850ec8e3bf4e53b8a68f157e863acdec",
          "transactionIndex": "0x3",
          "logIndex": "0x7",
          "removed": false
        }
      ],
      "logsBloom": "0x00000000000000001008000000000000000010000000000000000000000000000000000000000000000000000000000000000000000002000000000000000000000000000000000000080000000000000000000000000000000000000011000000000000000000000000000000000000800000000000000000000000000000002000000000000000000000000000000000000000000000000000000000000100000000000000000000000000000000000000000000000000000000000000000000000000000000000000000000000000000200000000004000000000000000000000000000000000000000000000000000000000000000000000000000000000",
      "type": "0x2",
      "transactionHash": "0x2a514b12457fffad38ab99945264355c850ec8e3bf4e53b8a68f157e863acdec",
      "transactionIndex": "0x3",
      "blockHash": "0x2d99a40936cc0d5d82cba0f1cf8719ed2711242f4925fef7c88fc3fe2bc205d5",
      "blockNumber": "0x185b10d",
      "gasUsed": "0x115b3",
      "effectiveGasPrice": "0x3350f68",
      "from": "0x868ba4d8700b152aff59a36e99bf151f50e4bdd4",
      "to": "0xa289ae6ed8336cab82626c3ff8e5af334eb7e0de",
      "contractAddress": null
    }
  ],
  "libraries": [],
  "pending": [],
  "returns": {},
  "timestamp": 1762873506,
  "chain": 59144,
  "commit": "3dd74f2"
}