{
  "transactions": [
    {
      "hash": "0xee84532e30b117ccd56c9f0b2f033c247f27952fb950dc599fe754a3bd663d8a",
      "transactionType": "CREATE",
      "contractName": "AAVEAdapter",
      "contractAddress": "0x8dfb7364768cf65e8b430d990e586bf679188f31",
      "function": null,
      "arguments": [
        "0xEa303aCD2c6BCeF98E9Db0475cD1db9A713A0FEc",
        "[0x176211869cA2b568f2A7D4EE941E073a821EE1ff]",
        "[0xc47b8C00b0f69a36fa203Ffeac0334874574a8Ac]"
      ],
      "transaction": {
        "from": "0x868ba4d8700b152aff59a36e99bf151f50e4bdd4",
        "gas": "0x797db",
        "value": "0x0",
        "input": "0x608060405234801561001057600080fd5b5060405161078138038061078183398101604081905261002f916101f5565b600080546001600160a01b0319166001600160a01b03851617905580518251146100945760405162461bcd60e51b81526020600482015260126024820152714d69736d617463686564206c656e6774687360701b604482015260640160405180910390fd5b60005b8251811015610114578181815181106100b2576100b261026f565b6020026020010151600160008584815181106100d0576100d061026f565b6020908102919091018101516001600160a01b0390811683529082019290925260400160002080546001600160a01b03191692909116919091179055600101610097565b50505050610285565b80516001600160a01b038116811461013457600080fd5b919050565b634e487b7160e01b600052604160045260246000fd5b600082601f83011261016057600080fd5b81516001600160401b0381111561017957610179610139565b604051600582901b90603f8201601f191681016001600160401b03811182821017156101a7576101a7610139565b6040529182526020818501810192908101868411156101c557600080fd5b6020860192505b838310156101eb576101dd8361011d565b8152602092830192016101cc565b5095945050505050565b60008060006060848603121561020a57600080fd5b6102138461011d565b60208501519093506001600160401b0381111561022f57600080fd5b61023b8682870161014f565b604086015190935090506001600160401b0381111561025957600080fd5b6102658682870161014f565b9150509250925092565b634e487b7160e01b600052603260045260246000fd5b6104ed806102946000396000f3fe608060405234801561001057600080fd5b50600436106100935760003560e01c80639e15c572116100665780639e15c5721461011e578063a03d55e31461012b578063d750afe814610132578063dc1a68c31461015b578063f887ea401461018457600080fd5b8063325964d71461009857806347e7ef24146100c857806365b89f9f146100dd5780636a128557146100fe575b600080fd5b6000546100ab906001600160a01b031681565b6040516001600160a01b0390911681526020015b60405180910390f35b6100db6100d636600461041d565b610195565b005b6100f06100eb36600461041d565b610300565b6040519081526020016100bf565b6100f061010c366004610447565b60026020526000908152604090205481565b634141564560e01b6100f0565b60006100f0565b6100ab610140366004610447565b6001602052600090815260409020546001600160a01b031681565b6100f0610169366004610447565b6001600160a01b031660009081526002602052604090205490565b6000546001600160a01b03166100ab565b6001600160a01b038281166000818152600160205260409081902054905163095ea7b360e01b815292166004830152602482018390529063095ea7b3906044016020604051808303816000875af11580156101f4573d6000803e3d6000fd5b505050506040513d601f19601f820116820180604052508101906102189190610469565b506001600160a01b0382811660008181526001602052604080822054905163617ba03760e01b815260048101939093526024830185905230604484015260648301919091529091169063617ba03790608401600060405180830381600087803b15801561028457600080fd5b505af1158015610298573d6000803e3d6000fd5b505050506001600160a01b038216600090815260026020526040812080548392906102c49084906104a1565b90915550506040518181527f2a89b2e3d580398d6dc2db5e0f336b52602bbaa51afa9bb5cdf59239cf0d2bea9060200160405180910390a15050565b6001600160a01b038281166000818152600160205260408082205482549151631a4ca37b60e21b81526004810194909452602484018690529084166044840152909283929116906369328dec906064016020604051808303816000875af115801561036f573d6000803e3d6000fd5b505050506040513d601f19601f8201168201806040525081019061039391906104b4565b6001600160a01b0385166000908152600260205260408120805492935083929091906103c09084906104cd565b90915550506040518181527fbde58bce285989d75e0815fe9c21d1c680ea85bd0b72c01eb962f636fc1d50049060200160405180910390a190505b92915050565b80356001600160a01b038116811461041857600080fd5b919050565b6000806040838503121561043057600080fd5b61043983610401565b946020939093013593505050565b60006020828403121561045957600080fd5b61046282610401565b9392505050565b60006020828403121561047b57600080fd5b8151801515811461046257600080fd5b634e487b7160e01b600052601160045260246000fd5b808201808211156103fb576103fb61048b565b6000602082840312156104c657600080fd5b5051919050565b818103818111156103fb576103fb61048b56fea164736f6c634300081c000a000000000000000000000000ea303acd2c6bcef98e9db0475cd1db9a713a0fec000000000000000000000000000000000000000000000000000000000000006000000000000000000000000000000000000000000000000000000000000000a00000000000000000000000000000000000000000000000000000000000000001000000000000000000000000176211869ca2b568f2a7d4ee941e073a821ee1ff0000000000000000000000000000000000000000000000000000000000000001000000000000000000000000c47b8c00b0f69a36fa203ffeac0334874574a8ac",
        "nonce": "0xb",
        "chainId": "0xe708"
      },
      "additionalContracts": [],
      "isFixedGasLimit": false
    },
    {
      "hash": "0x8766f12914160c50f1867c23ba41de31172c4546e8daf53259f38e3a42d24d1b",
      "transactionType": "CALL",
      "contractName": null,
      "contractAddress": "0xea303acd2c6bcef98e9db0475cd1db9a713a0fec",
      "function": "setAssetAdapter(address,address,bool)",
      "arguments": [
        "0x176211869cA2b568f2A7D4EE941E073a821EE1ff",
        "0x8DFB7364768cf65E8b430D990E586bf679188f31",
        "true"
      ],
      "transaction": {
        "from": "0x868ba4d8700b152aff59a36e99bf151f50e4bdd4",
        "to": "0xea303acd2c6bcef98e9db0475cd1db9a713a0fec",
        "gas": "0x17fa1",
        "value": "0x0",
        "input": "0x3b97a2c8000000000000000000000000176211869ca2b568f2a7d4ee941e073a821ee1ff0000000000000000000000008dfb7364768cf65e8b430d990e586bf679188f310000000000000000000000000000000000000000000000000000000000000001",
        "nonce": "0xc",
        "chainId": "0xe708"
      },
      "additionalContracts": [],
      "isFixedGasLimit": false
    }
  ],
  "receipts": [
    {
      "status": "0x1",
      "cumulativeGasUsed": "0xabb2c",
      "logs": [],
      "logsBloom": "0x00000000000000000000000000000000000000000000000000000000000000000000000000000000000000000000000000000000000000000000000000000000000000000000000000000000000000000000000000000000000000000000000000000000000000000000000000000000000000000000000000000000000000000000000000000000000000000000000000000000000000000000000000000000000000000000000000000000000000000000000000000000000000000000000000000000000000000000000000000000000000000000000000000000000000000000000000000000000000000000000000000000000000000000000000000000",
      "type": "0x2",
      "transactionHash": "0xee84532e30b117ccd56c9f0b2f033c247f27952fb950dc599fe754a3bd663d8a",
      "transactionIndex": "0x1",
      "blockHash": "0x2b992c47b3293a150cca62d75e83a5fd55679ac1580aee3693f28bd93a1b1a50",
      "blockNumber": "0x17af343",
      "gasUsed": "0x5d7ce",
      "effectiveGasPrice": "0x38bdb42",
      "from": "0x868ba4d8700b152aff59a36e99bf151f50e4bdd4",
      "to": null,
      "contractAddress": "0x8dfb7364768cf65e8b430d990e586bf679188f31"
    },
    {
      "status": "0x1",
      "cumulativeGasUsed": "0xbd0eb",
      "logs": [
        {
          "address": "0xea303acd2c6bcef98e9db0475cd1db9a713a0fec",
          "topics": [
            "0x5bb699ee4004238a2271a7de962e683e5f97f792c85c5306ea4610a636e83bde",
            "0x000000000000000000000000176211869ca2b568f2a7d4ee941e073a821ee1ff",
            "0x0000000000000000000000008dfb7364768cf65e8b430d990e586bf679188f31"
          ],
          "data": "0x0000000000000000000000000000000000000000000000000000000000000001",
          "blockHash": "0x2b992c47b3293a150cca62d75e83a5fd55679ac1580aee3693f28bd93a1b1a50",
          "blockNumber": "0x17af343",
          "blockTimestamp": "0x68fa4647",
          "transactionHash": "0x8766f12914160c50f1867c23ba41de31172c4546e8daf53259f38e3a42d24d1b",
          "transactionIndex": "0x2",
          "logIndex": "0x0",
          "removed": false
        }
      ],
      "logsBloom": "0x00000000040000001008000000000000000000000000000000000000200000000000000000000000000000000000000000000000000000000000000000000000100000000000000000080000000000000000000000000000000000000000000000000000000040000000000000000000800000000000000000000000000000000000000000220000000000000000000000000000000000000000000000000000000000000000000000000000000000000000000000000000000000000000000000000000000000000000000000000000000200000000004000000000000000000000000000000000000000000000000000000000000000000000000000000000",
      "type": "0x2",
      "transactionHash": "0x8766f12914160c50f1867c23ba41de31172c4546e8daf53259f38e3a42d24d1b",
      "transactionIndex": "0x2",
      "blockHash": "0x2b992c47b3293a150cca62d75e83a5fd55679ac1580aee3693f28bd93a1b1a50",
      "blockNumber": "0x17af343",
      "gasUsed": "0x115bf",
      "effectiveGasPrice": "0x38bdb42",
      "from": "0x868ba4d8700b152aff59a36e99bf151f50e4bdd4",
      "to": "0xea303acd2c6bcef98e9db0475cd1db9a713a0fec",
      "contractAddress": null
    }
  ],
  "libraries": [],
  "pending": [],
  "returns": {},
  "timestamp": 1761232456,
  "chain": 59144,
  "commit": "8a61f4d"
}