{
  "transactions": [
    {
      "hash": "0xcc48cd13bd152c111f85ce7beeac513cb231a2f1d39b037dfa938ce3c4729a1f",
      "transactionType": "CALL",
      "contractName": null,
      "contractAddress": "0xbd2a95ef74a0493ceee621f195964549e386febd",
      "function": "setDefaultAlloc(address[],address[],uint32[])",
      "arguments": [
        "[0x88541670E55cC00bEEFD87eB59EDd1b7C511AC9a]",
        "[0x7Da61A72879C87f63A81b62029f2613e9fCf58c2]",
        "[10000]"
      ],
      "transaction": {
        "from": "0x868ba4d8700b152aff59a36e99bf151f50e4bdd4",
        "to": "0xbd2a95ef74a0493ceee621f195964549e386febd",
        "gas": "0x302a2",
        "value": "0x0",
        "input": "0xed820070000000000000000000000000000000000000000000000000000000000000006000000000000000000000000000000000000000000000000000000000000000a000000000000000000000000000000000000000000000000000000000000000e0000000000000000000000000000000000000000000000000000000000000000100000000000000000000000088541670e55cc00beefd87eb59edd1b7c511ac9a00000000000000000000000000000000000000000000000000000000000000010000000000000000000000007da61a72879c87f63a81b62029f2613e9fcf58c200000000000000000000000000000000000000000000000000000000000000010000000000000000000000000000000000000000000000000000000000002710",
        "nonce": "0x1f",
        "chainId": "0xaa36a7"
      },
      "additionalContracts": [],
      "isFixedGasLimit": false
    }
  ],
  "receipts": [
    {
      "status": "0x1",
      "cumulativeGasUsed": "0x95cd4d",
      "logs": [
        {
          "address": "0xbd2a95ef74a0493ceee621f195964549e386febd",
          "topics": [
            "0xe1bc286e2a03be48fc14c4e24e4fc16c1e1e4ca51d4f8eb1651d9d78c94a61bd",
            "0x00000000000000000000000088541670e55cc00beefd87eb59edd1b7c511ac9a"
          ],
          "data": "0x",
          "blockHash": "0x8d110a0c53b2197adba85bef35444d8cfc1fc853190181edc41ae384e3224d75",
          "blockNumber": "0x8fce80",
          "blockTimestamp": "0x68f0fad8",
          "transactionHash": "0xcc48cd13bd152c111f85ce7beeac513cb231a2f1d39b037dfa938ce3c4729a1f",
          "transactionIndex": "0x38",
          "logIndex": "0x3f",
          "removed": false
        }
      ],
      "logsBloom": "0x00100000000000400000000000000000000000000000000000000000000000000000000000000000000000000000000000000000000000000000000000000000000000000000000080000000800000000000000000000000000000000000000000000000000000000000000000000000004000000000000000000000200000000000000000000000000000000000000000000000000000000000000400000000000000000000000000000000000000000010000000000000000000000000000000000000000000000000000000000000000000000000000000000000000000000000000004000000000000000000000000000000000000000000000000000000",
      "type": "0x2",
      "transactionHash": "0xcc48cd13bd152c111f85ce7beeac513cb231a2f1d39b037dfa938ce3c4729a1f",
      "transactionIndex": "0x38",
      "blockHash": "0x8d110a0c53b2197adba85bef35444d8cfc1fc853190181edc41ae384e3224d75",
      "blockNumber": "0x8fce80",
      "gasUsed": "0x22dee",
      "effectiveGasPrice": "0x109d7d",
      "from": "0x868ba4d8700b152aff59a36e99bf151f50e4bdd4",
      "to": "0xbd2a95ef74a0493ceee621f195964549e386febd",
      "contractAddress": null
    }
  ],
  "libraries": [],
  "pending": [],
  "returns": {},
  "timestamp": 1760623321,
  "chain": 11155111,
  "commit": "bd4fd61"
}