{
  "transactions": [
    {
      "hash": "0xa1bcc8a2ff2d4a5836d7e499601d6fe3d8f02eac4283ae34dc8cd15cd7c3d27d",
      "transactionType": "CALL",
      "contractName": null,
      "contractAddress": "0xcbd54e1a21d7eeae2de594c3325cd1ced26bdd87",
      "function": "setDefaultAlloc(address[],address[],uint32[])",
      "arguments": [
        "[0x88541670E55cC00bEEFD87eB59EDd1b7C511AC9a]",
        "[0x297310C0D2f952af20686158041A607655869e17]",
        "[10000]"
      ],
      "transaction": {
        "from": "0x868ba4d8700b152aff59a36e99bf151f50e4bdd4",
        "to": "0xcbd54e1a21d7eeae2de594c3325cd1ced26bdd87",
        "gas": "0x302a2",
        "value": "0x0",
        "input": "0xed820070000000000000000000000000000000000000000000000000000000000000006000000000000000000000000000000000000000000000000000000000000000a000000000000000000000000000000000000000000000000000000000000000e0000000000000000000000000000000000000000000000000000000000000000100000000000000000000000088541670e55cc00beefd87eb59edd1b7c511ac9a0000000000000000000000000000000000000000000000000000000000000001000000000000000000000000297310c0d2f952af20686158041a607655869e1700000000000000000000000000000000000000000000000000000000000000010000000000000000000000000000000000000000000000000000000000002710",
        "nonce": "0x25",
        "chainId": "0xaa36a7"
      },
      "additionalContracts": [],
      "isFixedGasLimit": false
    }
  ],
  "receipts": [
    {
      "status": "0x1",
      "cumulativeGasUsed": "0xa40734",
      "logs": [
        {
          "address": "0xcbd54e1a21d7eeae2de594c3325cd1ced26bdd87",
          "topics": [
            "0xe1bc286e2a03be48fc14c4e24e4fc16c1e1e4ca51d4f8eb1651d9d78c94a61bd",
            "0x00000000000000000000000088541670e55cc00beefd87eb59edd1b7c511ac9a"
          ],
          "data": "0x",
          "blockHash": "0x320cd97307379b00a5a2c8a43b57a84b7f25eefa377b5691524e913e0896927f",
          "blockNumber": "0x8fceab",
          "blockTimestamp": "0x68f0fce8",
          "transactionHash": "0xa1bcc8a2ff2d4a5836d7e499601d6fe3d8f02eac4283ae34dc8cd15cd7c3d27d",
          "transactionIndex": "0x37",
          "logIndex": "0x6d",
          "removed": false
        }
      ],
      "logsBloom": "0x00100000001000400000000000000000000000000000000000400000000000000000000000000000000000000000000000000000000000000000000000000000000000000000000000000000000000000000000000000000000000000000000000000000000000000000000000000000000000000000000000000000200000000000000000000000000000000000000000000000000000000000000400000000000000000000000000000000000000000010000000000000000000000000000000000000000000000000000000000000000000000000000000000000000000000000000004000000000000002000000000000000000000000000000000000000",
      "type": "0x2",
      "transactionHash": "0xa1bcc8a2ff2d4a5836d7e499601d6fe3d8f02eac4283ae34dc8cd15cd7c3d27d",
      "transactionIndex": "0x37",
      "blockHash": "0x320cd97307379b00a5a2c8a43b57a84b7f25eefa377b5691524e913e0896927f",
      "blockNumber": "0x8fceab",
      "gasUsed": "0x22dee",
      "effectiveGasPrice": "0xf424c",
      "from": "0x868ba4d8700b152aff59a36e99bf151f50e4bdd4",
      "to": "0xcbd54e1a21d7eeae2de594c3325cd1ced26bdd87",
      "contractAddress": null
    }
  ],
  "libraries": [],
  "pending": [],
  "returns": {},
  "timestamp": 1760623848,
  "chain": 11155111,
  "commit": "bd4fd61"
}