{
  "transactions": [
    {
      "hash": "0x65e10a1afb9ace45ef854267f44841f428915f714b6558ec43442ee29408c3f0",
      "transactionType": "CALL",
      "contractName": null,
      "contractAddress": "0xbd2a95ef74a0493ceee621f195964549e386febd",
      "function": "setDefaultAlloc(address[],address[],uint32[])",
      "arguments": [
        "[0x1c7D4B196Cb0C7B01d743Fbc6116a902379C7238]",
        "[0x7Da61A72879C87f63A81b62029f2613e9fCf58c2]",
        "[10000]"
      ],
      "transaction": {
        "from": "0x868ba4d8700b152aff59a36e99bf151f50e4bdd4",
        "to": "0xbd2a95ef74a0493ceee621f195964549e386febd",
        "gas": "0x302a2",
        "value": "0x0",
        "input": "0xed820070000000000000000000000000000000000000000000000000000000000000006000000000000000000000000000000000000000000000000000000000000000a000000000000000000000000000000000000000000000000000000000000000e000000000000000000000000000000000000000000000000000000000000000010000000000000000000000001c7d4b196cb0c7b01d743fbc6116a902379c723800000000000000000000000000000000000000000000000000000000000000010000000000000000000000007da61a72879c87f63a81b62029f2613e9fcf58c200000000000000000000000000000000000000000000000000000000000000010000000000000000000000000000000000000000000000000000000000002710",
        "nonce": "0x1b",
        "chainId": "0xaa36a7"
      },
      "additionalContracts": [],
      "isFixedGasLimit": false
    }
  ],
  "receipts": [
    {
      "status": "0x1",
      "cumulativeGasUsed": "0xae4b51",
      "logs": [
        {
          "address": "0xbd2a95ef74a0493ceee621f195964549e386febd",
          "topics": [
            "0xe1bc286e2a03be48fc14c4e24e4fc16c1e1e4ca51d4f8eb1651d9d78c94a61bd",
            "0x0000000000000000000000001c7d4b196cb0c7b01d743fbc6116a902379c7238"
          ],
          "data": "0x",
          "blockHash": "0xa68d1642fc397beefc04a44e9542c63c22e7181cbf4c22e2b04d951dbd186eda",
          "blockNumber": "0x8f984c",
          "blockTimestamp": "0x68ee6294",
          "transactionHash": "0x65e10a1afb9ace45ef854267f44841f428915f714b6558ec43442ee29408c3f0",
          "transactionIndex": "0x53",
          "logIndex": "0x80",
          "removed": false
        }
      ],
      "logsBloom": "0x00000000000000000000000000000000000000000000000000000000000000000000000000000000000000000000000000000000000004000000000000000000100000000000000080000000800000000000000000000000000000000000000000000000000000000000000000000000004000000000000000000000200000000000000000000000000000000000000000000000000000000000000400000000000000000000000000000000000000000000008000000000000000000000000000000000000000000000000000000000000000000000000000000000000000000000000004000000000000000000000000000000000000000000000000000000",
      "type": "0x2",
      "transactionHash": "0x65e10a1afb9ace45ef854267f44841f428915f714b6558ec43442ee29408c3f0",
      "transactionIndex": "0x53",
      "blockHash": "0xa68d1642fc397beefc04a44e9542c63c22e7181cbf4c22e2b04d951dbd186eda",
      "blockNumber": "0x8f984c",
      "gasUsed": "0x22dee",
      "effectiveGasPrice": "0xf424a",
      "from": "0x868ba4d8700b152aff59a36e99bf151f50e4bdd4",
      "to": "0xbd2a95ef74a0493ceee621f195964549e386febd",
      "contractAddress": null
    }
  ],
  "libraries": [],
  "pending": [],
  "returns": {},
  "timestamp": 1760453270,
  "chain": 11155111,
  "commit": "092eb75"
}