{
  "transactions": [
    {
      "hash": "0x504373e71275a8e3c6f4affb0b6aadd9f7cf4928b2f5e1f685be2f701b4e7d70",
      "transactionType": "CALL",
      "contractName": null,
      "contractAddress": "0x1583120639df41e74cc9bcf14101168ef9824469",
      "function": "setDefaultAlloc(address[],address[],uint32[])",
      "arguments": [
        "[0x88541670E55cC00bEEFD87eB59EDd1b7C511AC9a]",
        "[0xF6B9F6610bdcBbBaf4e959D66Df6cB587eCe6C8A]",
        "[10000]"
      ],
      "transaction": {
        "from": "0x868ba4d8700b152aff59a36e99bf151f50e4bdd4",
        "to": "0x1583120639df41e74cc9bcf14101168ef9824469",
        "gas": "0x2fcbc",
        "value": "0x0",
        "input": "0xed820070000000000000000000000000000000000000000000000000000000000000006000000000000000000000000000000000000000000000000000000000000000a000000000000000000000000000000000000000000000000000000000000000e0000000000000000000000000000000000000000000000000000000000000000100000000000000000000000088541670e55cc00beefd87eb59edd1b7c511ac9a0000000000000000000000000000000000000000000000000000000000000001000000000000000000000000f6b9f6610bdcbbbaf4e959d66df6cb587ece6c8a00000000000000000000000000000000000000000000000000000000000000010000000000000000000000000000000000000000000000000000000000002710",
        "nonce": "0x2d",
        "chainId": "0xaa36a7"
      },
      "additionalContracts": [],
      "isFixedGasLimit": false
    }
  ],
  "receipts": [
    {
      "status": "0x1",
      "cumulativeGasUsed": "0xb99b74",
      "logs": [
        {
          "address": "0x1583120639df41e74cc9bcf14101168ef9824469",
          "topics": [
            "0xe1bc286e2a03be48fc14c4e24e4fc16c1e1e4ca51d4f8eb1651d9d78c94a61bd",
            "0x00000000000000000000000088541670e55cc00beefd87eb59edd1b7c511ac9a"
          ],
          "data": "0x",
          "blockHash": "0x99628b1893d75db737e62251fba6dad71640572a352700760b3dcf2e2be9086b",
          "blockNumber": "0x91d528",
          "blockTimestamp": "0x6909abfc",
          "transactionHash": "0x504373e71275a8e3c6f4affb0b6aadd9f7cf4928b2f5e1f685be2f701b4e7d70",
          "transactionIndex": "0x49",
          "logIndex": "0x51",
          "removed": false
        }
      ],
      "logsBloom": "0x00100000000000400000000000080000000000000000000000000000000000000000000000000000000000000000000000000000000000000000000000000000000000000000000000000000000000000000000000000000000000000000000000000000000000000000000000000000000000000000000080000000200000000000000000000000000000000000000000000000000000000000000400000001000000000000000000000000000000000010000000000000000000000000000000000000000000000000000000000000000000000000000000000000000000000000000004000000000000000000000000000000000000000000000000000000",
      "type": "0x2",
      "transactionHash": "0x504373e71275a8e3c6f4affb0b6aadd9f7cf4928b2f5e1f685be2f701b4e7d70",
      "transactionIndex": "0x49",
      "blockHash": "0x99628b1893d75db737e62251fba6dad71640572a352700760b3dcf2e2be9086b",
      "blockNumber": "0x91d528",
      "gasUsed": "0x229a8",
      "effectiveGasPrice": "0xf424a",
      "from": "0x868ba4d8700b152aff59a36e99bf151f50e4bdd4",
      "to": "0x1583120639df41e74cc9bcf14101168ef9824469",
      "contractAddress": null
    }
  ],
  "libraries": [],
  "pending": [],
  "returns": {},
  "timestamp": 1762241533,
  "chain": 11155111,
  "commit": "8a61f4d"
}