{
  "transactions": [
    {
      "hash": "0x119c913b1b0d6412c9ae5d68d857e5ece59a8e6582b85abb93e667b18d3ffe18",
      "transactionType": "CREATE",
      "contractName": "AAVEAdapter",
      "contractAddress": "0xf6b9f6610bdcbbbaf4e959d66df6cb587ece6c8a",
      "function": null,
      "arguments": [
        "0x1583120639Df41E74cC9BCf14101168ef9824469",
        "[0x88541670E55cC00bEEFD87eB59EDd1b7C511AC9a]",
        "[0x6Ae43d3271ff6888e7Fc43Fd7321a503ff738951]",
        "[0x6b8558764d3b7572136F17174Cb9aB1DDc7E1259]"
      ],
      "transaction": {
        "from": "0x868ba4d8700b152aff59a36e99bf151f50e4bdd4",
        "gas": "0x7e6c3",
        "value": "0x0",
        "input": "0x608060405234801561001057600080fd5b5060405161086638038061086683398101604081905261002f91610349565b600080546001600160a01b0319166001600160a01b0386161790558151835114801561005c575080518351145b6100a15760405162461bcd60e51b81526020600482015260126024820152714d69736d617463686564206c656e6774687360701b604482015260640160405180910390fd5b60005b8351811015610267578281815181106100bf576100bf6103f0565b6020026020010151600160008684815181106100dd576100dd6103f0565b60200260200101516001600160a01b03166001600160a01b0316815260200190815260200160002060006101000a8154816001600160a01b0302191690836001600160a01b0316021790555081818151811061013b5761013b6103f0565b602002602001015160026000868481518110610159576101596103f0565b60200260200101516001600160a01b03166001600160a01b0316815260200190815260200160002060006101000a8154816001600160a01b0302191690836001600160a01b031602179055508381815181106101b7576101b76103f0565b60200260200101516001600160a01b031663095ea7b38483815181106101df576101df6103f0565b60200260200101516000196040518363ffffffff1660e01b815260040161021b9291906001600160a01b03929092168252602082015260400190565b6020604051808303816000875af115801561023a573d6000803e3d6000fd5b505050506040513d601f19601f8201168201806040525081019061025e9190610406565b506001016100a4565b505050505061042f565b80516001600160a01b038116811461028857600080fd5b919050565b634e487b7160e01b600052604160045260246000fd5b600082601f8301126102b457600080fd5b81516001600160401b038111156102cd576102cd61028d565b604051600582901b90603f8201601f191681016001600160401b03811182821017156102fb576102fb61028d565b60405291825260208185018101929081018684111561031957600080fd5b6020860192505b8383101561033f5761033183610271565b815260209283019201610320565b5095945050505050565b6000806000806080858703121561035f57600080fd5b61036885610271565b60208601519094506001600160401b0381111561038457600080fd5b610390878288016102a3565b604087015190945090506001600160401b038111156103ae57600080fd5b6103ba878288016102a3565b606087015190935090506001600160401b038111156103d857600080fd5b6103e4878288016102a3565b91505092959194509250565b634e487b7160e01b600052603260045260246000fd5b60006020828403121561041857600080fd5b8151801515811461042857600080fd5b9392505050565b6104288061043e6000396000f3fe608060405234801561001057600080fd5b50600436106100935760003560e01c8063a03d55e311610066578063a03d55e31461010b578063c6cf7c5f14610112578063d750afe81461013b578063d839f3d214610164578063f887ea401461017757600080fd5b8063325964d71461009857806347e7ef24146100c857806365b89f9f146100dd5780639e15c572146100fe575b600080fd5b6000546100ab906001600160a01b031681565b6040516001600160a01b0390911681526020015b60405180910390f35b6100db6100d63660046103bd565b610188565b005b6100f06100eb3660046103bd565b610248565b6040519081526020016100bf565b634141564560e01b6100f0565b60006100f0565b6100ab6101203660046103e7565b6002602052600090815260409020546001600160a01b031681565b6100ab6101493660046103e7565b6001602052600090815260409020546001600160a01b031681565b6100f06101723660046103e7565b61031d565b6000546001600160a01b03166100ab565b6001600160a01b0382811660008181526001602052604080822054905163617ba03760e01b815260048101939093526024830185905230604484015260648301919091529091169063617ba03790608401600060405180830381600087803b1580156101f357600080fd5b505af1158015610207573d6000803e3d6000fd5b505050507f2a89b2e3d580398d6dc2db5e0f336b52602bbaa51afa9bb5cdf59239cf0d2bea8160405161023c91815260200190565b60405180910390a15050565b6001600160a01b038281166000818152600160205260408082205482549151631a4ca37b60e21b81526004810194909452602484018690529084166044840152909283929116906369328dec906064016020604051808303816000875af11580156102b7573d6000803e3d6000fd5b505050506040513d601f19601f820116820180604052508101906102db9190610402565b90507fbde58bce285989d75e0815fe9c21d1c680ea85bd0b72c01eb962f636fc1d50048160405161030e91815260200190565b60405180910390a19392505050565b6001600160a01b038181166000908152600260205260408082205490516370a0823160e01b81523060048201529192169081906370a0823190602401602060405180830381865afa158015610376573d6000803e3d6000fd5b505050506040513d601f19601f8201168201806040525081019061039a9190610402565b9392505050565b80356001600160a01b03811681146103b857600080fd5b919050565b600080604083850312156103d057600080fd5b6103d9836103a1565b946020939093013593505050565b6000602082840312156103f957600080fd5b61039a826103a1565b60006020828403121561041457600080fd5b505191905056fea164736f6c634300081c000a0000000000000000000000001583120639df41e74cc9bcf14101168ef9824469000000000000000000000000000000000000000000000000000000000000008000000000000000000000000000000000000000000000000000000000000000c00000000000000000000000000000000000000000000000000000000000000100000000000000000000000000000000000000000000000000000000000000000100000000000000000000000088541670e55cc00beefd87eb59edd1b7c511ac9a00000000000000000000000000000000000000000000000000000000000000010000000000000000000000006ae43d3271ff6888e7fc43fd7321a503ff73895100000000000000000000000000000000000000000000000000000000000000010000000000000000000000006b8558764d3b7572136f17174cb9ab1ddc7e1259",
        "nonce": "0x29",
        "chainId": "0xaa36a7"
      },
      "additionalContracts": [],
      "isFixedGasLimit": false
    },
    {
      "hash": "0x3802c1084b7ee724cf5a6e47a0d78f239cfedb14fec54d2d89cf24be185d14fd",
      "transactionType": "CALL",
      "contractName": null,
      "contractAddress": "0x1583120639df41e74cc9bcf14101168ef9824469",
      "function": "setAssetAdapter(address,address,bool)",
      "arguments": [
        "0x88541670E55cC00bEEFD87eB59EDd1b7C511AC9a",
        "0xF6B9F6610bdcBbBaf4e959D66Df6cB587eCe6C8A",
        "true"
      ],
      "transaction": {
        "from": "0x868ba4d8700b152aff59a36e99bf151f50e4bdd4",
        "to": "0x1583120639df41e74cc9bcf14101168ef9824469",
        "gas": "0x17fa1",
        "value": "0x0",
        "input": "0x3b97a2c800000000000000000000000088541670e55cc00beefd87eb59edd1b7c511ac9a000000000000000000000000f6b9f6610bdcbbbaf4e959d66df6cb587ece6c8a0000000000000000000000000000000000000000000000000000000000000001",
        "nonce": "0x2a",
        "chainId": "0xaa36a7"
      },
      "additionalContracts": [],
      "isFixedGasLimit": false
    }
  ],
  "receipts": [
    {
      "status": "0x1",
      "cumulativeGasUsed": "0x8f02a7",
      "logs": [
        {
          "address": "0x88541670e55cc00beefd87eb59edd1b7c511ac9a",
          "topics": [
            "0x8c5be1e5ebec7d5bd14f71427d1e84f3dd0314c0f7b2291e5b200ac8c7c3b925",
            "0x000000000000000000000000f6b9f6610bdcbbbaf4e959d66df6cb587ece6c8a",
            "0x0000000000000000000000006ae43d3271ff6888e7fc43fd7321a503ff738951"
          ],
          "data": "0xffffffffffffffffffffffffffffffffffffffffffffffffffffffffffffffff",
          "blockHash": "0x7e336959e68f45cd5509dfe74213ee9f2c037494e6b511fb6d3720e0daa56d12",
          "blockNumber": "0x91d51c",
          "blockTimestamp": "0x6909ab6c",
          "transactionHash": "0x119c913b1b0d6412c9ae5d68d857e5ece59a8e6582b85abb93e667b18d3ffe18",
          "transactionIndex": "0x34",
          "logIndex": "0x5e",
          "removed": false
        }
      ],
      "logsBloom": "0x00000000000000000000000000000000000000000000000000000000000000000000000000004000002000000000000000040000000000000000000000200200000000000000000000000000000000000000000000000000000000000000200000000000000000000040000000000000000000000000000000000000000000002000000000000000000000000000010000000000000000000000000000000000020000000000000000000000000000000000000000000000000000000000000000000000000000000000000000000000000000000000000000000000000000000010000000000000000000000000000800000000000000000000000000000000",
      "type": "0x2",
      "transactionHash": "0x119c913b1b0d6412c9ae5d68d857e5ece59a8e6582b85abb93e667b18d3ffe18",
      "transactionIndex": "0x34",
      "blockHash": "0x7e336959e68f45cd5509dfe74213ee9f2c037494e6b511fb6d3720e0daa56d12",
      "blockNumber": "0x91d51c",
      "gasUsed": "0x61495",
      "effectiveGasPrice": "0xf424a",
      "from": "0x868ba4d8700b152aff59a36e99bf151f50e4bdd4",
      "to": null,
      "contractAddress": "0xf6b9f6610bdcbbbaf4e959d66df6cb587ece6c8a"
    },
    {
      "status": "0x1",
      "cumulativeGasUsed": "0x901866",
      "logs": [
        {
          "address": "0x1583120639df41e74cc9bcf14101168ef9824469",
          "topics": [
            "0x5bb699ee4004238a2271a7de962e683e5f97f792c85c5306ea4610a636e83bde",
            "0x00000000000000000000000088541670e55cc00beefd87eb59edd1b7c511ac9a",
            "0x000000000000000000000000f6b9f6610bdcbbbaf4e959d66df6cb587ece6c8a"
          ],
          "data": "0x0000000000000000000000000000000000000000000000000000000000000001",
          "blockHash": "0x7e336959e68f45cd5509dfe74213ee9f2c037494e6b511fb6d3720e0daa56d12",
          "blockNumber": "0x91d51c",
          "blockTimestamp": "0x6909ab6c",
          "transactionHash": "0x3802c1084b7ee724cf5a6e47a0d78f239cfedb14fec54d2d89cf24be185d14fd",
          "transactionIndex": "0x35",
          "logIndex": "0x5f",
          "removed": false
        }
      ],
      "logsBloom": "0x00100000000000401008000000080000000000000000000000000000000000000000000000004000000000000000000000000000000000000000000000000000000000000000000000000000000000000000000000000000000000000000000000000000000000000040000000000000000000000000000080000000000000000000000000000000000000000000000000000000000000000000000000000001000000000000000000000000000000000010000000000000000000000000000000000000000000000000000000000000000000000000004000000000000000000000000000000000000000000000000800000000000000000000000000000000",
      "type": "0x2",
      "transactionHash": "0x3802c1084b7ee724cf5a6e47a0d78f239cfedb14fec54d2d89cf24be185d14fd",
      "transactionIndex": "0x35",
      "blockHash": "0x7e336959e68f45cd5509dfe74213ee9f2c037494e6b511fb6d3720e0daa56d12",
      "blockNumber": "0x91d51c",
      "gasUsed": "0x115bf",
      "effectiveGasPrice": "0xf424a",
      "from": "0x868ba4d8700b152aff59a36e99bf151f50e4bdd4",
      "to": "0x1583120639df41e74cc9bcf14101168ef9824469",
      "contractAddress": null
    }
  ],
  "libraries": [],
  "pending": [],
  "returns": {},
  "timestamp": 1762241389,
  "chain": 11155111,
  "commit": "8a61f4d"
}