{
  "transactions": [
    {
      "hash": "0xb5c71f6689fcbc9f41c73023eaea6f68a7a79e6a65fb0881a20c3d351466a0a0",
      "transactionType": "CALL",
      "contractName": null,
      "contractAddress": "0xb6848bc4953870c796032fc860dbc8a14794c5b7",
      "function": "transferOwnership(address)",
      "arguments": [
        "0x391F3E72C62B382e3724694dC3f04366a5922953"
      ],
      "transaction": {
        "from": "0xf723116bf1897c2576ac4ed3a631b2ab9101d0ef",
        "to": "0xb6848bc4953870c796032fc860dbc8a14794c5b7",
        "gas": "0xa370",
        "value": "0x0",
        "input": "0xf2fde38b000000000000000000000000391f3e72c62b382e3724694dc3f04366a5922953",
        "nonce": "0xd",
        "chainId": "0xe708"
      },
      "additionalContracts": [],
      "isFixedGasLimit": false
    }
  ],
  "receipts": [
    {
      "status": "0x1",
      "cumulativeGasUsed": "0x6fc1",
      "logs": [
        {
          "address": "0xb6848bc4953870c796032fc860dbc8a14794c5b7",
          "topics": [
            "0x8be0079c531659141344cd1fd0a4f28419497f9722a3daafe3b4186f6b6457e0",
            "0x000000000000000000000000f723116bf1897c2576ac4ed3a631b2ab9101d0ef",
            "0x000000000000000000000000391f3e72c62b382e3724694dc3f04366a5922953"
          ],
          "data": "0x",
          "blockHash": "0x394592b7d89fe95378680a33413c7985a7193aafcb2067075a344cc2cd667c9d",
          "blockNumber": "0x1992da6",
          "blockTimestamp": "0x694385c4",
          "transactionHash": "0xb5c71f6689fcbc9f41c73023eaea6f68a7a79e6a65fb0881a20c3d351466a0a0",
          "transactionIndex": "0x0",
          "logIndex": "0x0",
          "removed": false
        }
      ],
      "logsBloom": "0x00000000000000000000000000000000000000000000000200800000000000000000000000000000001000000000000000000000000000000000000000000000000000000000000000800000000000000001000000000000000000000000000000000000000000000000000000000000000000000000000000000000000000400000000000000000002100000000000010000000000000000000000000000000000000000000000000000000000000400000000000000000000000000000000000000000000000000000004000000000000000000000000000000000000000000000000000000000000000000000000000000000000000000000080000000000",
      "type": "0x2",
      "transactionHash": "0xb5c71f6689fcbc9f41c73023eaea6f68a7a79e6a65fb0881a20c3d351466a0a0",
      "transactionIndex": "0x0",
      "blockHash": "0x394592b7d89fe95378680a33413c7985a7193aafcb2067075a344cc2cd667c9d",
      "blockNumber": "0x1992da6",
      "gasUsed": "0x6fc1",
      "effectiveGasPrice": "0x2331c40",
      "from": "0xf723116bf1897c2576ac4ed3a631b2ab9101d0ef",
      "to": "0xb6848bc4953870c796032fc860dbc8a14794c5b7",
      "contractAddress": null
    }
  ],
  "libraries": [],
  "pending": [],
  "returns": {},
  "timestamp": 1766032836,
  "chain": 59144,
  "commit": "638cb26"
}